:020000040000FA
:1000000000009D22333CB33E333FAE18AF180200D0
:1000100092190317831891190A118A18901904115B
:10002000BA198F348F3C0F3018200F3CD904811936
:10003000B4133411C80D03311F20B41833383A11EA
:10004000841910118A19831811178319921712171E
:1000500001000631352006323520A6188636A61353
:100060002611A719010D03317720FF04291B033145
:100070003B20FF04281B03344220A8130335A91397
:10008000AE18AF180004291B033148205004281B68
:1000900003345E2006354F200104B0195E20063679
:1000A00054200204B0195E20A6188636A613261125
:1000B000A719010D03315E200304B0190004291BA8
:1000C000033164206404281B0330AA20B018A6184A
:1000D0008636A6132611A719010D0331AA200104A3
:1000E000B119FF04351B0330B513882AAA20A818BC
:1000F000A9183011010D03318020B018032A902077
:100100003011020D03318720B018F52990203011ED
:10011000030D03319020B018882AB5130104B219D9
:100120000004321D03359D203C04351B03349A2006
:10013000B5139D20B218B5188C2A0004311D033563
:10014000AA203C04351B0334A720B513AA20B118FC
:10015000B5188C2A02000D0100019B010201280143
:10016000000102010001A3010201300100010101AF
:100170000001A40102013101000101010001A501FA
:10018000020132010001010100018001020166014A
:10019000000104010001840102016A01000104015F
:1001A0000001AA0102013401000101010001AB01BB
:1001B00002013501000101010001AC01020136011B
:1001C000000101010001AD0102013701000101013F
:1001D00000019F0102012E01000102010001AE0198
:1001E00002013801000101010001AF0102013901E2
:1001F000000101010001E418B336E4136411E519AC
:10020000010D03311C21E6130335E7130335E81311
:100210000335E9130004691B033118210104681B2D
:1002200003311821E404671B033118216104661BA4
:1002300003302021B33E2021E618E718E818E9181A
:10024000E4183337E4136411E519010D033141213A
:10025000EA130335EB130335EC130335ED130004F8
:100260006D1B03313D2101046C1B03313D21E4046E
:100270006B1B03313D2161046A1B03304521333F71
:100280004521EA18EB18EC18ED180200AA18B3364D
:10029000AA132A11AB19010D03355621AA183337B9
:1002A000AA132A11AB19010D03315821AE18AF184A
:1002B00003042F1B03315E21E8042E1B0334642149
:1002C000AE130335AF138121513E083C883E543FA5
:1002D0000F3ED53F692A883F1E2A06118F3C8E3873
:1002E0008E3F0300000000000000000006118E3C5D
:1002F0008918513A0400883B8E3B8229D53BAE18C1
:10030000AF180200D9188618C6184639463AC63AB8
:10031000C639FF048D190D3C8D3C0D3D0D3EFF048B
:100320008B19FF04D21989180939093A893A8E3C88
:100330008C180C388C38D53B86380638863D020040
:10034000A1191F11A0192011211D0335BB2149043A
:10035000A2190104A3192211231D0335B5210000A0
:10036000FF04A21E0330A31AAB210400FF04A01E49
:100370000330A11AA32102008229412A02280E3843
:100380008E3B0400F4049F190104A02904003330BB
:10039000CD21333C2928FB284629362A2B2AC62181
:1003A0000200EE191F11EF191E11F019333D6304FD
:1003B000C8194C3BCC3BC504D5196E11CA196F1135
:1003C000C9197011CF190200543B692A0F36EB216D
:1003D000B618B718EC21B6133611050D0331F2210A
:1003E0000104B719543F0F3E0200E2183337E213FD
:1003F0006211000403350104E21962150330333F32
:100400000334333B0200E018B336E01360110004FC
:1004100003350104E01960150330B33E0334B33AE9
:100420000200333DCF18C918CA188004C8194C3FC0
:10043000CC3FD53B8638063886390200D918861855
:10044000FF04C619FF048B19FF04D219FF048D198C
:100450000D3D0D3E0200E3183337E3136311010D28
:1004600003313422922A35228F2A0200E118B33652
:10047000E1136111010D03313F22982A4022952A90
:100480000200D018CE048119C1189004881DD1181B
:100490000F3C513A0200000100010001000100017F
:1004A00000010001000100010001480143012D018C
:1004B00056015301200156013001310100010101B3
:1004C0000101010101010401040101010401010113
:1004D0000101FA04A4192411A519A41A2511033144
:1004E0006B220200333D39119E1939119F193911C0
:1004F000D1290200D918FE04CD19FE04CE1902003C
:1005000000010001000100010001000100010001E3
:10051000C63D8C39863D0200C6398C3D0200063846
:10052000D53B0200063CD53B02008638D53B020095
:10053000863CD53B020000010001BC210200000105
:10054000000102000200000100010001020002009F
:100550000200020000010001000100010001000191
:02056000020097
:0207FE000020D9
:00000001FF
