:020000040000FA
:100000000000F922D918FE04CD19FE04CE19020011
:1000100092190317831891190A118A18901904115B
:10002000BA198F348F3C0F3018200F3CD904811936
:10003000A8132811C80D03311F20A81827383A111A
:10004000841910118A19831811178319921712171E
:10005000010016010001F70102016E010001020119
:100060000001FD0102012401000101010001FE0166
:1000700002012501000101010001FF010201260129
:10008000000101010001010103012801000101013A
:100090000001020103012901000101010001030126
:1000A00003012A01000101010001040103012B01E8
:1000B000000101010001050103012C010001010102
:1000C0000001060103012D010001010100010701EA
:1000D00003012E01000101010001080103012F01AC
:1000E00000010101000109010301300100010101CA
:1000F00000010A01030131010001010100010B01AE
:10010000030132010001010100010C01030133016F
:100110000001010100010D01030134010001010191
:1001200000010E01030135010001010100010F0171
:100130000301360100010101000110010301370133
:100140000001010100011101030138010001010159
:100150000001120103013901000101010001063112
:10016000BB200632BB20EC188636EC136C11ED195F
:10017000010D0331F720FF046F1B0331C120FF0481
:100180006E1B0334C620EE130335EF1300046F1B00
:100190000331CC2032046E1B0334E2200635D32019
:1001A0000104A419E2200636D8200204A419E22092
:1001B000EC188636EC136C11ED19010D0331E220B9
:1001C0000304A41900046F1B0331E82064046E1BB0
:1001D00003301721A418EC188636EC136C11ED19B6
:1001E000010D033117210104A519A9131721EE18D8
:1001F000EF182411010D03310021A4185B2A0B21F3
:100200002411020D03310721A418692A0B2124119E
:10021000030D0335A4180004251D033517213204EE
:10022000291B03341521A9131721A518A9180200A9
:10023000E719671103311F211E0488193A2167113C
:10024000010D033126211C0488193A216711020D82
:1002500003312D21120488193A216711030D03314E
:1002600034210E0488193A216711040D03313A2113
:100270000C0488190838CD2A883648213211671FA6
:1002800003314421B3134521B3186711B219522128
:100290006711040D03315021B3130504B219522123
:1002A000B318B1130504311B0334B118883E083C60
:1002B000FA04331B03306721B118B3183211B01997
:1002C0003011050D03316621A7386721A73C0200D4
:1002D0008F3670210404EA29223CA23CB418A921DB
:1002E000E8182234E8136811010D03317921B4189C
:1002F000A921B4133411C80D03318021A238B418D8
:10030000A2348321A921A73C0004301D03318B2195
:1003100022380404EA293011010D0331912103042C
:10032000EA293011020D033197210204EA29301124
:10033000030D03319D210204EA293011040D03311C
:10034000A3210104EA293011050D0331A92101047B
:10035000EA290200A018A736A0132011A119010D47
:100360000335B921A0188F36A0132011A119010D52
:100370000335B718FA04371B0334C021B713E9213A
:100380000635C321E921513E083C883E543F0F3ECB
:10039000D53FCD2A883F0C04C6192F0486190804BE
:1003A000891906118F3C8E388E3F03000000000033
:1003B0000000000006118E3C8918513A0400883B69
:1003C0008E3B8618CC04C619D53BB718B118B318A4
:1003D000A73C0200E919010D0331F221D318820470
:1003E000D41912226911020D033104223611010DB4
:1003F0000331FF21E004D3198304D4191222FF042E
:10040000D3198304D41912226911030D03310C226C
:10041000D3188304D41912226911040D0331122256
:10042000D318D41802008618C6184639463AC63A78
:10043000FF048D190D3D0D3EFF048B19DF04D21909
:1004400089188E3C8C18863C0638863D0200E419DB
:100450001F11E5191E11E619273D6304C8194C3B0D
:10046000CC3BC504D5196411CA196511C9196611A7
:10047000CF190200543BCD2A0F364122B518B618C9
:100480004222B5133511050D033148220104B61976
:10049000543F0F3E0200132AA52ADE2A0E388E3B57
:1004A0000400040027305722273CAF28842A9A2AC8
:1004B0008F2A51220200E2182737E213621100044A
:1004C00003350104E21962150330273F0334273B4B
:1004D0000200E018A736E0136011000403350104A0
:1004E000E01960150330A73E0334A73A0200273D08
:1004F000CF18C918CA188004C8194C3FCC3FD53B47
:1005000086380638863902000004261D03358B2202
:10051000A618E82A8E220104A619E52A0200E3188B
:100520002737E3136311010D03319822EE2A992234
:10053000EB2A0200E118A736E1136111010D033126
:10054000A322F42AA422F12A0200D018CE04811991
:10055000C1189004881DD1180F3C513A02000001C7
:100560000001000100010001000100010001000183
:100570000001480143012D0156015301200156019C
:1005800030013101000101010101010101010401FA
:1005900004010101040101010101FA04EA196A11CF
:1005A000EB19EA1A6B110331CF220200273D3911F2
:1005B0009E1939119F193911272A0200273CA73E9D
:1005C000B518B618B718B8180200C63D8D39020024
:1005D000C6398D3D0200063CD53B02000638D53BAE
:1005E0000200863CD53B02008638D53B0200000164
:1005F00000014B2202000200020000010001000184
:1006000002000001000100010001000100010001E1
:1006100000010001000100010001000100010001D2
:080620000001000100010200CD
:0207FE000020D9
:00000001FF
