:020000040000FA
:1000000000006222D918FE04CD19FE04CE190200A8
:1000100092190317831891190A118A18901904115B
:10002000B5198F348F3C0F3018200F3CD90481193B
:10003000AE132E11C80D03311F20AE182D38351107
:10004000841910118A19831811178319921712171E
:1000500001000631352006323520A2188636A2135B
:100060002211A319010D03317220FF04251B033156
:100070003B20FF04241B03344020A4130335A513A5
:100080000004251B033146205004241B03345C204C
:1000900006354D200104AA195C20063652200204C0
:1000A000AA195C20A2188636A2132211A319010DE9
:1000B00003315C200304AA190004251B03316220CC
:1000C0006404241B0330A520AA18A2188636A213A4
:1000D0002211A319010D0331A5200104AB19512AE6
:1000E000AF13A520A418A5182A11010D03317B20F8
:1000F000AA18D5298B202A11020D03318220AA18B3
:10010000C7298B202A11030D03318B20AA18512AED
:10011000AF130104AC1900042C1D033598203C04D6
:100120002F1B03349520AF139820AC18AF184E2A1C
:1001300000042B1D0335A5203C042F1B0334A220F3
:10014000AF13A520AB18AF184E2A02000D01000115
:1001500060010201240100010201000166010201A7
:100160002A01000101010001670102012B010001C8
:1001700001010001680102012C01000101010001DF
:100180004601020166010001040100014A01020169
:100190006A010001040100016D0102012E0100014C
:1001A000010100016E0102012F01000101010001A6
:1001B0006F01020130010001010100017001020123
:1001C0003101000101010001710102013201000150
:1001D000010100017201020133010001010100016E
:1001E000730102013401000101010001E418AD3680
:1001F000E4136411E519010D03311721E6130335EA
:10020000E7130335E8130335E9130004691B0331D1
:1002100013210104681B03311321E404671B03311C
:1002200013216104661B03301B21AD3E1B21E61820
:10023000E718E818E918E4182D37E4136411E519F4
:10024000010D03313C21EA130335EB130335EC13A5
:100250000335ED1300046D1B0331382101046C1BC1
:1002600003313821E4046B1B0331382161046A1B1C
:10027000033040212D3F4021EA18EB18EC18ED180F
:100280000200A618AD36A6132611A719010D0335D5
:100290005021A6188F36A6132611A719010D033574
:1002A000B218FA04321B03345721B2137D210635EC
:1002B0005A217D21513E083C883E543F0F3ED53F98
:1002C0002E2A883F0C04C6192F04861908048919A0
:1002D00006118F3C8E388E3F0300000000000000A6
:1002E000000006118E3C8918513A0400883B8E3B71
:1002F0008618CC04C619D53BB2180200D918861846
:10030000C6184639463AC63AFF048D190D3D0D3ED2
:10031000FF048B19DF04D21989188E3C8C1886389B
:100320000638863D0200EE191F11EF191E11F01953
:100330002D3D6304C8194C3BCC3BC504D5196E1147
:10034000CA196F11C9197011CF190200543B2E2A16
:100350000F36AD21B018B118AE21B0133011050D14
:100360000331B4210104B119543F0F3E02007E292C
:10037000062A3F2A0E388E3B040004002D30C3218C
:100380002D3C2928F628FB29F029BD210200E2187E
:100390002D37E2136211000403350104E2196215DE
:1003A00003302D3F03342D3B0200E018AD36E0133F
:1003B0006011000403350104E01960150330AD3EFF
:1003C0000334AD3A02002D3DCF18C918CA18800475
:1003D000C8194C3FCC3FD53B8638063886390200D9
:1003E000E3182D37E3136311010D0331F921572A67
:1003F000FA21542A0200E118AD36E1136111010D12
:10040000033104225D2A05225A2A0200D018CE04A4
:100410008119C1189004881DD1180F3C513A02006F
:1004200000010001000100010001000100010001C4
:1004300000010001480143012D0156015301200133
:1004400056013001310100010101010101010101E9
:10045000040104010101040101010101FA04A019D0
:100460002011A119A01A21110331302202002D3DC3
:1004700034119E1934119F193411932902002D3C17
:10048000AD3EB018B118B218B31802000001000157
:10049000000100010001000100010001C63D8D398D
:1004A0000200C6398D3D02000638D53B0200063CED
:1004B000D53B02008638D53B0200863CD53B020086
:1004C00000010001B721020002000200000100014A
:1004D0000001020002000200020000010001000110
:0A04E000000100010001000102000C
:0207FE000020D9
:00000001FF
