:10000000FF3FFF3FFF3FFF3F1720FF3FFF3FFF3F07
:1000100083360C20EE190F20833EEE19833A031726
:10002000833EA219071190190A11A319592118200A
:1000300083184221063506321F2086325420951837
:1000400096189718981891189218931894181916CA
:100050002C201A1303353120991303359A139B185A
:100060009C1800041A1B50040335191B0334452047
:1000700006353D209F189F13452006364120020477
:1000800044208632452003049F1900041A1B64048F
:100090000335191B033002009F18863202009E1898
:1000A0009E132016A0139E2199189A181F125B20E8
:1000B0009F1870296B2002041F1F033162209F18B4
:1000C0007A296B2003041F1F03316B209F189E2980
:1000D000A0139D189D131D11033577203C04201B90
:1000E00003347420A01377209D18A018AB291E118B
:1000F000033502003C04201B03348020A0130200BF
:100100009E18A018AB21A8368720283389209B1879
:100110009C1803041C1BE80403351B1B03349420A8
:100120009B1303359C130200D518CC18D418D31890
:100130008818D118513E083C883E543F0F3ED53FA9
:10014000883F0E3C8E188618FF04C61984198B1937
:10015000D2198D190D3D0D3E89180939093A893A90
:10016000833E8F3C8E388E3F03000000000000006D
:1001700000000611833E8E3C8918513A0400833EEC
:10018000883B8E3B0E380829D53B9B189C180200F3
:10019000A832E420951303359613033597130335DE
:1001A000981318110331E0200104171B0331DE20DE
:1001B000D404161B0331DE20C104151B0330E820D4
:1001C000A83E283F8E29E820951896189718981869
:1001D0002833032191130335921303359313033509
:1001E00094131411033100210104131B0331FE2069
:1001F000D404121B0331FE20C104111B0330020082
:10020000A83E283F8E219118921893189418020046
:10021000D9188618C6184639463AC63AC639FF0470
:100220008D190D3C8D3C0D3D0D3EFF048B19D219EF
:10023000D23E89180939093A893A8E3C8C180C3813
:100240008C38D53B86380638863D02002411251DA2
:10025000033502004904A6190104A7192611271D18
:100260000335392100000104833EA61B0330A71A81
:100270002E2104000104833EA41B00040330A51AB0
:10028000A51B26210829842998290E388E3B0400B5
:10029000F404833EA4190104A51926290400833E11
:1002A00028305621283C1A28C8288328A729A329A2
:1002B0004E218F348F3C0F3060210F3CD9048119BF
:1002C000C804A113211F03316721A1182838231165
:1002D0008A191011871922178319EE176E1701005A
:1002E000033C28330338833E03307821283B020047
:1002F000283F0200033CA8320338833E03308221AA
:10030000A83A0200A83E0200D018CE048119C118F4
:100310009004881DD1180F3C513A02008D39D23912
:10032000C63D8C39863DF404A4190104A519262183
:10033000283CA83E283F9B189C1802008C3DC639DB
:10034000D2398D3D02002833A621AE21B121A83239
:10035000AA21B421B721C6398D390200063CD53B0C
:1003600002000638D53B0200863CD53B02008638A9
:10037000D53B0200FF3FFF3FFF3FFF3FFF3FFF3FF7
:10038000FF3FFF3FFF3FFF3FFF3FFF3FFF3FFF3F7D
:10039000FF3FFF3FFF3FFF3FFF3FFF3FFF3FFF3F6D
:1003A000FF3FFF3FFF3FFF3FFF3FFF3FFF3FFF3F5D
:1003B000FF3FFF3FFF3FFF3FFF3FFF3FFF3FFF3F4D
:1007F000FF3FFF3FFF3FFF3FFF3FFF3FFF3F002027
:00000001FF
