:020000040000FA
:1000000000006C22D918FE04CD19FE04CE1902009E
:1000100092190317831891190A118A18901904115B
:10002000B5198F348F3C0F3018200F3CD90481193B
:10003000AE132E11C80D03311F20AE182D38351107
:10004000841910118A19831811178319921712171E
:1000500001000631352006323520A2188636A2135B
:100060002211A319010D03317820FF04251B033150
:100070003B20FF04241B03344020A4130335A513A5
:100080000004251B033146205004241B03345C204C
:1000900006354D200104AA195C20063652200204C0
:1000A000AA195C20A2188636A2132211A319010DE9
:1000B00003315C200304AA190004251B03316220CC
:1000C0006404241B0330AB20AA18A2188636A2139E
:1000D0002211A319010D0331AB200104AB19FF0458
:1000E0002F1B03347620AF135B2AAB20582AAB209A
:1000F000A418A5182A11010D03318120AA18DF299F
:1001000091202A11020D03318820AA18D1299120AB
:100110002A11030D03319120AA185B2AAF130104A1
:10012000AC1900042C1D03359E203C042F1B033406
:100130009B20AF139E20AC18AF18582A00042B1D2B
:100140000335AB203C042F1B0334A820AF13AB2096
:10015000AB18AF18582A02000D0100016A01020114
:100160002401000102010001700102012A010001C5
:1001700001010001710102012B01000101010001D7
:10018000720102012C010001010100015001020174
:100190006601000104010001540102016A0100012D
:1001A00004010001770102012E010001010100019B
:1001B000780102012F010001010100017901020112
:1001C00030010001010100017A0102013101000149
:1001D000010100017B010201320100010101000166
:1001E0007C01020133010001010100017D010201D6
:1001F0003401000101010001E418AD36E41364117B
:10020000E519010D03311D21E6130335E71303350D
:10021000E8130335E9130004691B033119210104B4
:10022000681B03311921E404671B033119216104A0
:10023000661B03302121AD3E2121E618E718E8189E
:10024000E918E4182D37E4136411E519010D0331A1
:100250004221EA130335EB130335EC130335ED1399
:1002600000046D1B03313E2101046C1B03313E2150
:10027000E4046B1B03313E2161046A1B03304621F9
:100280002D3F4621EA18EB18EC18ED180200A618CD
:10029000AD36A6132611A719010D03355621A61850
:1002A0008F36A6132611A719010D0335B218FA04CB
:1002B000321B03345D21B213832106356021832173
:1002C000513E083C883E543F0F3ED53F382A883F78
:1002D0000C04C6192F0486190804891906118F3CCD
:1002E0008E388E3F03000000000000000000061161
:1002F0008E3C8918513A0400883B8E3B8618CC040A
:10030000C619D53BB2180200D9188618C618463946
:10031000463AC63AFF048D190D3C8D3C0D3D0D3E0D
:10032000FF048B19FF04D21989188E3C8C180C38E5
:100330008C3886380638863D0200EE191F11EF19F9
:100340001E11F0192D3D6304C8194C3BCC3BC5046C
:10035000D5196E11CA196F11C9197011CF19020080
:10036000543B382A0F36B721B018B118B821B01352
:100370003011050D0331BE210104B119543F0F3E68
:1003800002008429102A492A0E388E3B04000400FA
:100390002D30CD212D3C2928FC28052AFA29C721FA
:1003A0000200E2182D37E213621100040335010444
:1003B000E219621503302D3F03342D3B0200E01893
:1003C000AD36E0136011000403350104E019601537
:1003D0000330AD3E0334AD3A02002D3DCF18C918AD
:1003E000CA188004C8194C3FCC3FD53B8638063824
:1003F00086390200E3182D37E3136311010D033131
:100400000322612A04225E2A0200E118AD36E113BC
:100410006111010D03310E22672A0F22642A0200A6
:10042000D018CE048119C1189004881DD1180F3C32
:10043000513A020000010001000100010001000129
:100440000001000100010001480143012D01560196
:100450005301200156013001310100010101010168
:100460000101010104010401010104010101010173
:10047000FA04A0192011A119A01A211103313A225E
:1004800002002D3D34119E1934119F1934119D29FC
:1004900002002D3CAD3EB018B118B218B3180200DE
:1004A0000001000100010001000100010001000144
:1004B000C63D8D390200C6398D3D02000638D53B58
:1004C0000200063CD53B02008638D53B0200863C44
:1004D000D53B020000010001C12102000200020020
:1004E0000001000100010200020002000200000100
:0E04F0000001000100010001000100010200F6
:0207FE000020D9
:00000001FF
