:020000040000FA
:1000000000002923D918FE04CD19FE04CE190200E0
:1000100092190317831891190A118A18901904115B
:10002000BF198F348F3C0F3018200F3CD904811931
:10003000AD132D11C80D03311F20AD182C383F1101
:10004000841910118A19831811178319921712171E
:100050000100170100012301030120010001020139
:1000600000012D0103012A010001010100012E01FF
:1000700003012B01000101010001250103012201FF
:100080000001020100012701030124010001020116
:100090000001300103012D010001010100013101C6
:1000A00003012E01000101010001320103012F01B2
:1000B00000010101000133010301300100010101D0
:1000C000000134010301310100010101000135018A
:1000D0000301320100010101000136010301330176
:1000E0000001010100013701030134010001010198
:1000F000000138010301350100010101000139014E
:10010000030136010001010100013A010301370139
:100110000001010100013B0103013801000101015F
:1001200000013C01030139010001010100013D0111
:1001300003013A010001010100013E0103013B01FD
:100140000001010100013F0103013C010001010127
:100150000001400103013D010001010100014101D5
:1001600003013E010001010100010631C1200632F8
:10017000C120EE188636EE136E11EF19010D033112
:10018000FE20FF04211B0331C720FF04201B033482
:10019000CC20A0130335A1130004211B0331D2206E
:1001A0003204201B0334E8200635D9200104AA19A3
:1001B000E8200636DE200204AA19E820EE1886366A
:1001C000EE136E11EF19010D0331E8200304AA1993
:1001D0000004211B0331EE206404201B03301F2187
:1001E000AA18EE188636EE136E11EF19010D0331C1
:1001F0001F210104AB19142BAE131F21A018A11845
:100200002A11010D03310721AA18922A12212A115D
:10021000020D03310E21AA18A02A12212A11030D62
:100220000335AA1800042B1D03351F2132042E1B91
:1002300003341C21AE131F21AB18AE18112B020082
:10024000E9196911033127211E0488194221691116
:10025000010D03312E211C04881942216911020D60
:10026000033135211204881942216911030D03312C
:100270003C210E04881942216911040D03314221E9
:100280000C0488190838F92A883650213711691F5B
:1002900003314C21B8134D21B8186911B7195A21EF
:1002A0006911040D03315821B8130504B7195A21F7
:1002B000B818B6130504361B0334B618883E083C3C
:1002C000FA04381B03306F21B618B8183711B51966
:1002D0003511050D03316E21AC386F21AC3C0200A5
:1002E0008F3678210404212A283CA83CB918B12172
:1002F000EA182834EA136A11010D03318121B91873
:10030000B121B9133911C80D03318821A838B918A2
:10031000A8348B21B121AC3C0004351D033193215D
:1003200028380404212A3511010D033199210304D1
:10033000212A3511020D03319F210204212A351192
:10034000030D0331A5210204212A3511040D0331C7
:10035000AB210104212A3511050D0331B12101041E
:10036000212A0200A618AC36A6132611A719010DE2
:100370000335C121A6188F36A6132611A719010D22
:100380000335BC18FA043C1B0334C821BC13F1210B
:100390000635CB21F121513E083C883E543F0F3EAB
:1003A000D53FF92A883F0C04C6192F048619080482
:1003B000891906118F3C8E388E3F03000000000023
:1003C0000000000006118E3C8918513A0400883B59
:1003D0008E3B8618CC04C619D53BBC18B618B81885
:1003E000AC3C0200E418AC36E4136411E519010DCD
:1003F00003310722A2130335A3130304231B033184
:100400000322E904221B03300922AC3E0922A21870
:10041000A318E4182C37E4136411E519010D033116
:100420001E22A4130335A5130304251B03311A222E
:10043000E904241B033020222C3F2022A418A518F5
:100440000200EB19010D03312922D3188204D419BB
:1004500049226B11020D03313B223B11010D033187
:100460003622E004D3198304D4194922FF04D31996
:100470008304D41949226B11030D03314322D3188D
:100480008304D41949226B11040D03314922D31876
:10049000D41802008618C6184639463AC63AFF04F0
:1004A0008D190D3D0D3EFF048B19DF04D2198918FB
:1004B0008E3C8C18863C0638863D0200E6191F11DA
:1004C000E7191E11E8192C3D6304C8194C3BCC3BBD
:1004D000C504D5196611CA196711C9196811CF1950
:1004E0000200543BF92A0F367822BA18BB18792239
:1004F000BA133A11050D03317F220104BB19543F91
:100500000F3E02004A2AD12A0A2B0E388E3B0400E5
:1005100004002C308E222C3CB528F229C62ABB2A96
:1005200088220200E2182C37E2136211000403351E
:100530000104E219621503302C3F03342C3B020006
:10054000E018AC36E0136011000403350104E01933
:1005500060150330AC3E0334AC3A02002C3DCF189A
:10056000C918CA188004C8194C3FCC3FD53B8638FF
:10057000063886390200E3182C37E3136311010DA6
:100580000331C4221A2BC522172B0200E118AC3606
:10059000E1136111010D0331CF22202BD0221D2B3D
:1005A0000200D018CE048119C1189004881DD118FA
:1005B0000F3C513A0200000100010001000100015E
:1005C00000010001000100010001480143012D016B
:1005D0005601530120015601300131010001010192
:1005E00001010101010104010401010104010101F2
:1005F0000101FA04EC196C11ED19EC1A6D110331BB
:10060000FB2202002C3D3E119E193E119F193E1106
:100610005E2A02002C3CAC3EBA18BB18BC18BD18B0
:100620000200C63D8D390200C6398D3D0200063CF0
:10063000D53B02000638D53B0200863CD53B020084
:100640008638D53B020000010001000100010001D5
:1006500000018222020002000200000100010200EB
:100660000001000100010001000100010001000182
:100670000001000100010001000100010001000172
:0606800000010001020070
:0207FE000020D9
:00000001FF
