:10000000FF3FFF3FFF3FFF3F1720FF3FFF3FFF3F07
:1000100083360C20EE190F20833EEE19833A031726
:10002000833EA219071190190A11A319572118200C
:1000300083184021063506321F2086325420951839
:1000400096189718981891189218931894181916CA
:100050002C201A1303353120991303359A139B185A
:100060009C1800041A1B50040335191B0334452047
:1000700006353D209F189F13452006364120020477
:1000800044208632452003049F1900041A1B64048F
:100090000335191B033002009F18863202009E1898
:1000A0009E132016A0139C2199189A181F125B20EA
:1000B0009F186E296B2002041F1F033162209F18B6
:1000C00078296B2003041F1F03316B209F189C2984
:1000D000A0139D189D131D11033577203C04201B90
:1000E00003347420A01377209D18A018A9291E118D
:1000F000033502003C04201B03348020A0130200BF
:100100009E18A018A921A8368720283389209B187B
:100110009C1803041C1BE80403351B1B03349420A8
:100120009B1303359C130200D518CC18D418D31890
:100130008818D118513E083C883E543F0F3ED53FA9
:10014000883F0E3C8E188618FF04C61984198B1937
:10015000D2198D190D3D0D3E89180939093A893A90
:10016000833E8F3C8E388E3F03000000000000006D
:1001700000000611833E8E3C8918513A0400833EEC
:10018000883B8E3B0E380629D53B9B189C180200F5
:10019000A832E320951303359613033597130335DF
:1001A000981318110331E0200104171B0331DE20DE
:1001B000E404161B0331DE206104151B0330E72025
:1001C000A83E8C29E7209518961897189818283378
:1001D00001219113033592130335931303359413BF
:1001E00014110331FF200104131B0331FD20E4042B
:1001F000121B0331FD206104111B03300200283F54
:100200008C2191189218931894180200D918861806
:10021000C6184639463AC63AC639FF048D190D3C10
:100220008D3C0D3D0D3EFF048B19D219D23E89182D
:100230000939093A893A8E3C8C180C388C38D53BF0
:1002400086380638863D02002411251D033502003C
:100250004904A6190104A7192611271D03353721C2
:1002600000000104833EA61B0330A71A2C210400C2
:100270000104833EA41B00040330A51AA51B2421FE
:100280000629822996290E388E3B0400F404833E09
:10029000A4190104A51924290400833E28305421FF
:1002A000283C1A28C8288328A529A1294C218F3445
:1002B0008F3C0F305E210F3CD9048119C804A11373
:1002C000211F03316521A118283823118A19101123
:1002D000871922178319EE176E170100033C283384
:1002E0000338833E03307621283B0200283F02007A
:1002F000033CA8320338833E03308021A83A020031
:10030000A83E0200D018CE048119C1189004881D9F
:10031000D1180F3C513A02008D39D239C63D8C3983
:10032000863DF404A4190104A5192421283CA83E03
:10033000283F9B189C1802008C3DC639D2398D3D50
:1003400002002833A421AC21AF21A832A821B22178
:10035000B521C6398D390200063CD53B020006386E
:10036000D53B0200863CD53B02008638D53B0200D7
:10037000FF3FFF3FFF3FFF3FFF3FFF3FFF3FFF3F8D
:10038000FF3FFF3FFF3FFF3FFF3FFF3FFF3FFF3F7D
:10039000FF3FFF3FFF3FFF3FFF3FFF3FFF3FFF3F6D
:1003A000FF3FFF3FFF3FFF3FFF3FFF3FFF3FFF3F5D
:1007F000FF3FFF3FFF3FFF3FFF3FFF3FFF3F002027
:00000001FF
