:020000040000FA
:1000000000008822D918FE04CD19FE04CE19020082
:1000100092190317831891190A118A18901904115B
:10002000B9198F348F3C0F3018200F3CD904811937
:10003000B2133211C80D03311F20B21831383911F3
:10004000841910118A19831811178319921712171E
:1000500001000631352006323520A6188636A61353
:100060002611A719010D03317520FF04291B033147
:100070003B20FF04281B03344020A8130335A91399
:100080000004291B033146205004281B03345C2044
:1000900006354D200104AE195C20063652200204BC
:1000A000AE195C20A6188636A6132611A719010DD5
:1000B00003315C200304AE190004291B03316220C4
:1000C0006404281B0330A820AE18A6188636A61391
:1000D0002611A719010D0331A8200104AF19FF044F
:1000E000331B0330B313862AA820A818A9182E1191
:1000F000010D03317E20AE18FD298E202E11020D38
:1001000003318520AE18EF298E202E11030D033107
:100110008E20AE18862AB3130104B0190004301DD6
:1001200003359B203C04331B03349820B3139B20DE
:10013000B018B318842A00042F1D0335A8203C04EE
:10014000331B0334A520B313A820AF18B318842A97
:1001500002000D01000182010201280100010201DB
:1001600000018C0102012E010001010100018D013D
:1001700002012F010001010100018E010201300185
:100180000001010100016E0102016601000104018C
:100190000001720102016A010001040100019301E2
:1001A0000201320100010101000194010201330149
:1001B000000101010001950102013401000101016A
:1001C00000019601020135010001010100019701C2
:1001D000020136010001010100019801020137010D
:1001E0000001010100019901020138010001010132
:1001F0000001E418B136E4136411E519010D03316F
:100200001A21E6130335E7130335E8130335E91321
:100210000004691B033116210104681B03311621F8
:10022000E404671B033116216104661B03301E21A1
:10023000B13E1E21E618E718E818E918E41831372E
:10024000E4136411E519010D03313F21EA1303356D
:10025000EB130335EC130335ED1300046D1B033171
:100260003B2101046C1B03313B21E4046B1B033174
:100270003B2161046A1B03304321313F4321EA18CB
:10028000EB18EC18ED180200AA18B136AA132A11BF
:10029000AB19010D03355321AA188F36AA132A1161
:1002A000AB19010D0335B618FA04361B03345A2175
:1002B000B613802106355D218021513E083C883EE1
:1002C000543F0F3ED53F562A883F0C04C6192F04D1
:1002D00086190804891906118F3C8E388E3F030059
:1002E000000000000000000006118E3C8918513A01
:1002F0000400883B8E3B8618CC04C619D53BB61843
:100300000200A1191F11A0192011211D03359C21E4
:100310004904A2190104A3192211231D03359621B2
:100320000000FF04A21E0330A31A8C210400FF0466
:10033000A01E0330A11A84210200D9188618C618FD
:100340004639463AC63AC639FF048D190D3C8D3CF4
:100350000D3D0D3EFF048B19FF04D21989188E3C08
:100360008C180C388C3886380638863D02009D295A
:100370002E2A672A0E388E3B0400F4049F190104CC
:10038000812904003130C721313C2928F928232A4A
:10039000182AC1210200EE191F11EF191E11F019C0
:1003A000313D6304C8194C3BCC3BC504D5196E11D3
:1003B000CA196F11C9197011CF190200543B562A7E
:1003C0000F36E521B418B518E621B4133411050D24
:1003D0000331EC210104B519543F0F3E0200E2182D
:1003E0003137E2136211000403350104E21962158A
:1003F0000330313F0334313B0200E018B136E013E3
:100400006011000403350104E01960150330B13EAA
:100410000334B13A0200313DCF18C918CA1880041C
:10042000C8194C3FCC3FD53B863806388639020088
:10043000E3183137E3136311010D03312122792AC7
:100440002222762A0200E118B136E1136111010D72
:1004500003312C227F2A2D227C2A0200D018CE04C0
:100460008119C1189004881DD1180F3C513A02001F
:100470000001000100010001000100010001000174
:1004800000010001480143012D01560153012001E3
:100490005601300131010001010101010101010199
:1004A000040104010101040101010101FA04A4197C
:1004B0002411A519A41A2511033158220200313D37
:1004C00038119E1938119F193811CB290200313C7F
:1004D000B13EB418B518B618B718020000010001F3
:1004E0000001000100010001000100010638D53BB8
:1004F0000200063CD53B02008638D53B0200863C14
:10050000D53B0200000100018D3902008D3D020043
:10051000B7210200020002000001000100010200F8
:1005200002000200020000010001000100010001C0
:06053000000100010200C1
:0207FE000020D9
:00000001FF
