:020000040000FA
:100000000000A522333CB33E333FAE18AF180200C8
:1000100092190317831891190A118A18901904115B
:10002000BA198F348F3C0F3018200F3CD904811936
:10003000B4133411C80D03311F20B41833383A11EA
:10004000841910118A19831811178319921712171E
:1000500001000631352006323520A6188636A61353
:100060002611A719010D03317720FF04291B033145
:100070003B20FF04281B03344220A8130335A91397
:10008000AE18AF180004291B033148205004281B68
:1000900003345E2006354F200104B0195E20063679
:1000A00054200204B0195E20A6188636A613261125
:1000B000A719010D03315E200304B0190004291BA8
:1000C000033164206404281B0330AA20B018A6184A
:1000D0008636A6132611A719010D0331AA200104A3
:1000E000B119FF04351B0330B513902AAA20A818B4
:1000F000A9183011010D03318020B0180A2A902070
:100100003011020D03318720B018182A90203011C9
:10011000030D03319020B018902AB5130104B219D1
:100120000004321D03359D203C04351B03349A2006
:10013000B5139D20B218B518942A0004311D03355B
:10014000AA203C04351B0334A720B513AA20B118FC
:10015000B518942A0200AA18B336AA132A11AB19AB
:10016000010D0335BB20AA183337AA132A11AB1986
:10017000010D0331BD20AE18AF1817042F1B03313A
:10018000C32070042E1B0334C920AE130335AF13F4
:10019000FB20D518CC18D418D3188818D118513E84
:1001A000083C883E543F0F3ED53F883F0E3C8E189A
:1001B0008618FF04C619FF048B19FF04D219FF0427
:1001C0008D190D3D0D3E89180939093A06118F3CEC
:1001D0008E388E3F03000000000000000000061172
:1001E0008E3C8918513A0400883B8E3B0E38972983
:1001F000D53BAE18AF1802000D010001A3010201AA
:100200002801000102010001AB01020130010001DF
:1002100001010001AC0102013101000101010001F5
:10022000AD0102013201000101010001880102015A
:1002300066010001040100018C0102016A01000154
:1002400004010001B20102013401000101010001B9
:10025000B30102013501000101010001B4010201F5
:100260003601000101010001B50102013701000161
:1002700001010001A70102012E010001020100019C
:10028000B60102013801000101010001B7010201BC
:100290003901000101010001E418B336E4136411CF
:1002A000E519010D03316D21E6130335E71303351D
:1002B000E8130335E9130004691B033169210104C4
:1002C000681B03316921E404671B03316921610460
:1002D000661B03307121B33E7121E618E718E81858
:1002E000E918E4183337E4136411E519010D0331FB
:1002F0009221EA130335EB130335EC130335ED13A9
:1003000000046D1B03318E2101046C1B03318E210F
:10031000E4046B1B03318E2161046A1B03309621B8
:10032000333F9621EA18EB18EC18ED180200D918A3
:100330008618C6184639463AC63AC639FF048D199A
:100340000D3C8D3C0D3D0D3EFF048B19FF04D21971
:1003500089180939093A893A8E3C8C180C388C383E
:10036000D53B86380638863D0200A1191F11A01919
:100370002011211D0335D0214904A2190104A3191C
:100380002211231D0335CA210000FF04A21E0330E1
:10039000A31AC0210400FF04A01E0330A11AB82133
:1003A00002009729492A02280E388E3B0400F404E3
:1003B0009F190104B52904003330E221333C292878
:1003C0004C29AB283E2A332ADB210200EE191F11EB
:1003D000EF191E11F019333D6304C8194C3BCC3B97
:1003E000C504D5196E11CA196F11C9197011CF1929
:1003F0000200543B712A0F360022B618B7180122AA
:10040000B6133611050D033107220104B719543F05
:100410000F3E0200E2183337E21362110004033585
:100420000104E21962150330333F0334333B020009
:10043000E018B336E0136011000403350104E0193D
:1004400060150330B33E0334B33A0200333DCF1896
:10045000C918CA188004C8194C3FCC3FD53B863810
:10046000063886390200E3183337E3136311010DB0
:1004700003313C229A2A3D22972A0200E118B33622
:10048000E1136111010D03314722A02A48229D2A60
:100490000200D018CE048119C1189004881DD1180B
:1004A0000F3C513A0200000100010001000100016F
:1004B00000010001000100010001480143012D017C
:1004C00056015301200156013001310100010101A3
:1004D0000101010101010401040101010401010103
:1004E0000101FA04A4192411A519A41A2511033134
:1004F00073220200333D39119E1939119F193911A8
:10050000E6290200D918FE04CD19FE04CE19020016
:1005100000010001000100010001000100010001D3
:10052000C63D8C39863D0200C6398C3D0200063836
:10053000D53B0200063CD53B02008638D53B020085
:10054000863CD53B020000010001D12102000001E0
:10055000000102000200000100010001020002008F
:100560000200020000010001000100010001000181
:02057000020087
:0207FE000020D9
:00000001FF
