:020000040000FA
:1000000000008E22D918FE04CD19FE04CE1902007C
:1000100092190317831891190A118A18901904115B
:10002000B9198F348F3C0F3018200F3CD904811937
:10003000B2133211C80D03311F20B21831383911F3
:10004000841910118A19831811178319921712171E
:1000500001000631352006323520A6188636A61353
:100060002611A719010D03317820FF04291B033144
:100070003B20FF04281B03344020A8130335A91399
:100080000004291B033146205004281B03345C2044
:1000900006354D200104AE195C20063652200204BC
:1000A000AE195C20A6188636A6132611A719010DD5
:1000B00003315C200304AE190004291B03316220C4
:1000C0006404281B0330AB20AE18A6188636A6138E
:1000D0002611A719010D0331AB200104AF19FF044C
:1000E000331B03347620B3137D2AAB207A2AAB204E
:1000F000A818A9182E11010D03318120AE18012A6C
:1001000091202E11020D03318820AE18F329912081
:100110002E11030D03319120AE187D2AB313010473
:10012000B0190004301D03359E203C04331B0334FA
:100130009B20B3139E20B018B3187A2A00042F1DF9
:100140000335AB203C04331B0334A820B313AB208E
:10015000AF18B3187A2A02000D0100018C010201C8
:100160002801000102010001920102012E0100019B
:1001700001010001930102012F01000101010001B1
:10018000940102013001000101010001720102012C
:100190006601000104010001760102016A0100010B
:1001A0000401000199010201320100010101000175
:1001B0009A01020133010001010100019B010201CA
:1001C00034010001010100019C010201350100011F
:1001D000010100019D010201360100010101000140
:1001E0009E01020137010001010100019F0102018E
:1001F0003801000101010001E418B136E413641173
:10020000E519010D03311D21E6130335E71303350D
:10021000E8130335E9130004691B033119210104B4
:10022000681B03311921E404671B033119216104A0
:10023000661B03302121B13E2121E618E718E8189A
:10024000E918E4183137E4136411E519010D03319D
:100250004221EA130335EB130335EC130335ED1399
:1002600000046D1B03313E2101046C1B03313E2150
:10027000E4046B1B03313E2161046A1B03304621F9
:10028000313F4621EA18EB18EC18ED180200AA18C5
:10029000B136AA132A11AB19010D03355621AA183C
:1002A0008F36AA132A11AB19010D0335B618FA04BB
:1002B000361B03345D21B61383210635602183216B
:1002C000513E083C883E543F0F3ED53F5A2A883F56
:1002D0000C04C6192F0486190804891906118F3CCD
:1002E0008E388E3F03000000000000000000061161
:1002F0008E3C8918513A0400883B8E3B8618CC040A
:10030000C619D53BB6180200A1191F11A01920115A
:10031000211D03359F214904A2190104A3192211AB
:10032000231D033599210000FF04A21E0330A31AE8
:100330008F210400FF04A01E0330A11A87210200B0
:10034000D9188618C6184639463AC63AFF048D1998
:100350000D3C8D3C8D3D0D3D0D3EFF048B19FF0482
:10036000D21989188E3C8C180C388C388C39863808
:100370000638863D0200A029322A6B2A0E388E3BB1
:100380000400F4049F190104842904003130CB21B6
:10039000313C2928FC28272A1C2AC5210200EE19F5
:1003A0001F11EF191E11F019313D6304C8194C3BA0
:1003B000CC3BC504D5196E11CA196F11C91970113A
:1003C000CF190200543B5A2A0F36E921B418B51848
:1003D000EA21B4133411050D0331F0210104B519DC
:1003E000543F0F3E0200E2183137E213621100045D
:1003F00003350104E21962150330313F0334313B08
:100400000200E018B136E013601100040335010466
:10041000E01960150330B13E0334B13A0200313DBA
:10042000CF18C918CA188004C8194C3FCC3FD53B17
:100430008638063886390200E3183137E313631132
:10044000010D03312522832A2622802A0200E11889
:10045000B136E1136111010D03313022892A3122B5
:10046000862A0200D018CE048119C1189004881D74
:10047000D1180F3C513A02000001000100010001B7
:1004800000010001000100010001000148014301D9
:100490002D015601530120015601300131010001A7
:1004A0000101010101010101040104010101040133
:1004B00001010101FA04A4192411A519A41A251196
:1004C00003315C220200313D38119E1938119F1909
:1004D0003811CF290200313CB13EB418B518B61816
:1004E000B718020000010001000100010001000135
:1004F00000010001863DD53B02008639D53B020054
:100500000638D53B0200063CD53B02008638D53B79
:100510000200863CD53B020000010001BB21020025
:1005200002000200000100010001020002000200BE
:1005300002000001000100010001000100010001B2
:020540000200B7
:0207FE000020D9
:00000001FF
