:10000000FF3FFF3FFF3FFF3F1720FF3FFF3FFF3F07
:1000100083360C20EE190F20833EEE19833A031726
:10002000833E9E19071190190A119F194521182026
:100030008318EA20063506321F2086325020911898
:1000400092189318941815162820161303352D208E
:10005000951303359613971898180004161B50042F
:100060000335151B03344120063539209B189B139B
:10007000412006363D200204402086324120030400
:100080009B190004161B64040335151B0330020082
:100090009B18863202009A189A131C169C1386210C
:1000A000951896181B1257209B1868296720020480
:1000B0001B1F03315E209B187229672003041B1F3E
:1000C000033167209B1886299C13991899131911DD
:1000D000033573203C041C1B033470209C137320D5
:1000E00099189C1893291A11033502003C041C1B13
:1000F00003347C209C1302009A189C18932124112D
:1001000003358420971898180304181BE804033556
:10011000171B03348F209713033598130200D5184B
:10012000CC18D418D3188818D118513E083C883EF2
:10013000543F0F3ED53F883F0E3C8E188618FF0473
:10014000C61984198B19D2198D190D3D0D3E8918C8
:100150000939093A893A833E8F3C8E388E3F030035
:1001600000000000000000000611833E8E3C89184C
:10017000513A0400833E883B8E3B0E380B29D53B19
:1001800097189818020024110335E52091130335C0
:100190009213033593130335941314110331DC20A8
:1001A0000104131B0331DA20D404121B0331DA20BB
:1001B000C004111B03300200911892189318941870
:1001C000A63E263F5C29A4180200911892189318A5
:1001D000941802000B297C298D290E388E3B0400CF
:1001E000F404833EA0190104A11929290400833EC7
:1001F0002630FE20263C1A28C3287F289B299729D1
:1002000025110335A636062126330921A418A41387
:10021000F620A418F620D9188618C6184639463A8A
:10022000C63AC639FF048D190D3C8D3C0D3D0D3E7F
:10023000FF048B19D219D23E89180939093A893A33
:100240008E3C8C180C388C38D53B86380638863D69
:1002500002002011211D033502004904A2190104E6
:10026000A3192211231D03353C2100000104833E04
:10027000A21B0330A31A312104000104833EA01BFA
:1002800000040330A11AA11B29218F348F3C0F30A9
:100290004C210F3CD9048119C8049D131D1F033143
:1002A00053219D1826381F118A19101187191E17FE
:1002B0008319EE176E1701008D39D239C63D8C397E
:1002C000863DF404A0190104A1192929A5180200EA
:1002D000033C26330338833E03307021263B020063
:1002E000263F0200033CA6320338833E03307A21C6
:1002F000A63A0200A63E0200D018CE048119C11809
:100300009004881DD1180F3C513A02008C3DC6392B
:10031000D2398D3DA518A5130200263CA63E263FE6
:10032000971898180200C6398D39A518020026338F
:100330009A219F21A221A6329E21A521A821063C17
:10034000D53B02000638D53B0200863CD53B020077
:100350008638D53B0200FF3FFF3FFF3FFF3FFF3F97
:10036000FF3FFF3FFF3FFF3FFF3FFF3FFF3FFF3F9D
:10037000FF3FFF3FFF3FFF3FFF3FFF3FFF3FFF3F8D
:10038000FF3FFF3FFF3FFF3FFF3FFF3FFF3FFF3F7D
:10039000FF3FFF3FFF3FFF3FFF3FFF3FFF3FFF3F6D
:1007F000FF3FFF3FFF3FFF3FFF3FFF3FFF3F002027
:00000001FF
